:020000040800F2
:10000000202F002099010008EF120008E3110008DA
:10001000ED12000831070008251400080000000058
:1000200000000000000000000000000001010008C6
:10003000330700080000000045010008F112000825
:10004000B3010008B3010008B3010008B3010008C0
:10005000B3010008B3010008B3010008B3010008B0
:10006000B3010008B3010008B3010008B3010008A0
:10007000B3010008B3010008B3010008B301000890
:10008000B3010008B3010008B3010008B301000880
:10009000B3010008B3010008B3010008B301000870
:1000A000B3010008B3010008B3010008B301000860
:1000B000B3010008B30100086D130008B301000884
:1000C000B3010008B3010008B3010008B301000840
:1000D000B3010008B3010008B3010008B301000830
:1000E000B3010008B3010008B3010008DFF80CD029
:1000F00000F056FA00480047DD1A0008202F0020C3
:10010000224B19680868B0E8F00F80F30988BFF344
:100110006F8F4FF0000080F311884EF00D0E704786
:100120000000000006480068006880F3088862B696
:1001300061B6BFF34F8FBFF36F8F00DF00BF00BF0B
:1001400008ED00E0EFF30980BFF36F8F0F4B1A68E3
:1001500020E9F00F106008B54FF0500080F31188CF
:10016000BFF34F8FBFF36F8F02F096F84FF0000090
:1001700080F31188BDE8084019680868B0E8F00FFE
:1001800080F30988BFF36F8F704700BF2000002005
:10019000EFF3058070470000064880470648004797
:1001A000FEE7FEE7FEE7FEE7FEE7FEE7FEE7FEE727
:1001B000FEE7FEE76B130008ED000008202A04DBD1
:1001C000203A21FA02F00021704721FA02F3D040D0
:1001D000C2F12002914008431946704740EA0103EA
:1001E0009B0703D009E008C9121F08C0042AFAD2ED
:1001F00003E011F8013B00F8013B521EF9D27047B1
:10020000D2B201E000F8012B491EFBD27047002258
:10021000F6E710B513460A4604461946FFF7F0FF05
:10022000204610BD2DE9FE4F804681EA0300C00F35
:100230000C46009021F0004123F00045B8EB02008D
:10024000A94105D24046214690461C460B4602462F
:1002500023F00040104347D0270DC7F30A00C3F333
:100260000A510290401A019040286BDAC3F3130040
:1002700040F4801B0098924620B10023D2EB030A81
:1002800063EB0B0B01985946C0F14002504600F059
:1002900008F906460D4650465946019A00F010F9F5
:1002A00010EB08006141002487EA115284EAE773E9
:1002B0001A4340D0009A62B3019A012A4FEA0752CA
:1002C00015DC001B61EB02014FF0004202EA07520D
:1002D000CDE90042001C41F5801132462B4600F06A
:1002E00010F903B0BDE8F08F40462146F9E7001B46
:1002F00061EB0201001C41F5801300185B412018DE
:10030000A2F5001747EB030140EAD570B6196D411D
:1003100011E06D084FEA360645EAC0754FEA07520C
:10032000001B61EB0201001C41F5801149084FEAF6
:1003300030000019514132462B4603B0BDE8F04F62
:1003400000F0D0B80098012240000023D0EB020258
:1003500063EBE073009821464FEAE074B8EB0000CD
:1003600061EB0401E9E783F000435BE781F00041C2
:1003700058E72DE9FE4F81EA030404F0004421F020
:10038000004100944FF0000B23F0004350EA0104B9
:100390005ED052EA03045BD0C3F30A54C1F30A559A
:1003A0002C44A4F2F3340194A0FB0254C1F31301D2
:1003B00041F48011C3F3130343F4801301FB02449F
:1003C00000FB034E840A970A44EA815447EA8357A4
:1003D000A4FB076802958D0A05FB07854FEA932C5D
:1003E00004FB0C542705029D4FEA065847EA1637CE
:1003F000B5EB08056EEB070C870E920E47EA8117E6
:1004000042EA8312A7FB0201B6EB0B0164EB000486
:100410002B0D43EA0C335E1844EB1C50DA46514670
:10042000E7FB0201C5F313044FEA0B3343EA14530D
:100430004FEA0432019C43EA0603A4F10C0402943F
:10044000009CCDE900B400F05CF803B0BDE8F08F8B
:1004500000200146F9E70EB540F233410291002138
:10046000CDE900110A460B4600F04BF803B000BD81
:10047000C1F30A5210B5C1F3130140F2FF3341F446
:1004800080119A4201DA002010BD40F233439A42B3
:10049000A2F2334203DC5242FFF790FE10BD9040BF
:1004A00010BD202A04DB203A00FA02F10020704738
:1004B0009140C2F1200320FA03F3194390407047A2
:1004C000202A06DBCB17203A41FA02F043EAE07318
:1004D00006E041FA02F3D040C2F120029140084305
:1004E0001946704710B5141E73F1000408DA401C59
:1004F00041F1000192185B411A4301D120F0010043
:1005000010BD2DE9F04D92469B4611B1B1FA81F232
:1005100002E0B0FA80F220329046FFF7C2FF0446B4
:100520000F4640EA0A0041EA0B0153465A46084387
:1005300013D0114653EA010019D0C8F140025046C9
:10054000FFF73CFE05460E46504659464246FFF729
:10055000A8FF084305D0012004E020463946BDE845
:10056000F08D0020054346EAE0762C4337430A9895
:100570006305E40AA0EB08000022FD0A44EA4754A0
:100580000A3002D500200146E9E70105101969414A
:10059000DDE9084500196941BDE8F04DA2E700001A
:1005A000064C074D06E0E06840F0010394E80700C0
:1005B00098471034AC42F6D3FFF79CFD642700083F
:1005C000842700082DE9F04D81EA030404F0004B74
:1005D00021F0004514464FF0000A23F0004150EA94
:1005E000050220D054EA01021DD0C5F30A57024685
:1005F000C5F31303C1F31300C1F30A5640F4801589
:1006000043F48013A7EB0608101BD64608F2FD380A
:1006100073EB050002D308F1010801E092185B4179
:10062000B8F1000F03DA00200146BDE8F08D00208C
:100630004FF48011064684460EE0171B73EB050746
:1006400005D3121B63EB050306434CEA010C490872
:100650004FEA300092185B4150EA0107EDD152EAAF
:10066000030012D082EA040083EA0501084305D0A2
:10067000101BAB4106D20122002306E000224FF0FE
:10068000004302E06FF0010253101AEB06004CEB3E
:10069000085110EB0A0041EB0B01BDE8F04DFFF7EC
:1006A00021BF70B521F0004303430CD0C1F30A55BC
:1006B0000024D5EB040564EB0403D617AD1AB3414F
:1006C00002DB0020014670BD201841EB025170BDD5
:1006D0000EB5C10F80EAE0700844CA07002140F25D
:1006E00033438DE80E000A460B46FFF70AFF03B0BE
:1006F00000BD70B5C1F30A5201F000450024C1F3FA
:10070000130140F2FF3341F480119A4201DA0020D4
:1007100070BD40F233439A42A2F2334203DC5242AC
:10072000FFF74CFD00E090402C43F1D0404270BDFB
:10073000FEE770472DE9F84FDFF8B891002409F182
:10074000040A0AF1040B23460F270BF1040EC9E03B
:100750000125A5402A40AA427DD1674ED1F804C0A8
:10076000ACEB0608B44532D014DCBCF1030F3AD030
:1007700009DCBCF1000F2AD0BCF1010F1CD0BCF188
:10078000020F31D11DE0BCF1110F17D0BCF1120FD7
:100790002AD119E0B8F5881F19D006DCB8F5803FDA
:1007A00015D0B8F5801F1FD111E0B8F5001F0ED08D
:1007B000B8F5041F18D10AE0CB6815E0CB681B1D03
:1007C00012E0CB6808330FE0CB680C330CE08B6889
:1007D0002BB1012B4FF0080303D0456104E0042343
:1007E00002E0056100E00023FF2A01D8064601E08F
:1007F00000F104064FEA840501D9A5F12005D6F8D9
:10080000008007FA05FC28EA0C0803FA05F548EA17
:100810000508C6F800804D68ED0062D5374DAE6919
:1008200046F00106AE61AD6924F0030605F001054E
:100830000095334D06EB050CDCF80850A607360F83
:1008400007FA06F825EA0805DFF8B880404503D125
:100850004FF0000817E044E0DFF8AC80404502D1DB
:100860004FF001080FE0DFF8A480404502D14FF0BF
:10087000020808E0DFF89880404502D14FF00308F5
:1008800001E04FF0040808FA06F848EA0508CCF839
:1008900008804D68D9F80060ED034D4601D5164338
:1008A00000E096432E604D68DAF80060AD035546CF
:1008B00001D5164300E096432E604D68DBF80060DA
:1008C000ED025D4601D5164300E096432E604D686B
:1008D000DEF80060AD02754601D5164300E0964390
:1008E0002E60641C0D682A46E5407FF431AFBDE8F8
:1008F000F88F0000000401400000111000100240B9
:100900000000014000080140000C014000100140BF
:10091000001401400AB1016170470904FBE70000BF
:10092000014880687047000010000020024881687C
:10093000027811448160704710000020074810B50C
:10094000016841F010010160032000F08FF80020E1
:1009500000F006F800F03EF8002010BD0020024034
:1009600000B5014687B000221E2000F05FF81E206F
:1009700000F04EF81348C16941F00401C161C0693B
:1009800005A900F004000690684600F017F900F091
:1009900035F90D494000B0FBF1F10D480B4A491EF5
:1009A0000260416040F2E7320021C0E9032181602A
:1009B00000F0FCFA10B1012007B000BD044800F0BF
:1009C00023FBF9E70010024040420F0000080040FE
:1009D000D80200200C4808B5816941F0010181610D
:1009E000816901F001010091C16941F08051C1614B
:1009F000C06900F0805000900448416821F0E06137
:100A000041F00071416008BD00100240000001404B
:100A1000002809DB00F01F020121914040098000FD
:100A200000F1E020C0F8001170470000F0B40E4B58
:100A30001B680C46C3F30223C3F10705042D00D93C
:100A40000425191D072901D2002300E0DB1E012621
:100A500006FA05F1491E214099409E40761E164037
:100A60003143F0BC00F0F3BC0CED00E0064900F0AF
:100A7000070208684FF6FF03184040EA0220034AC5
:100A800010430860704700000CED00E00000FA051C
:100A90002DE9F0470F46050061D0434E306800F065
:100AA0000700B84209D2306820F0070038433060B0
:100AB000306800F00700B84251D128683B4C8107EC
:100AC00012D5400703D5606840F4E0606060287884
:100AD000000703D5606840F4605060606068A968F2
:100AE00020F0F000084360602878C00728D06868CC
:100AF000012810D02168022810D0890700292EDA99
:100B0000616821F0030101436160FFF709FF80463E
:100B100041F288390DE021688903EFE78901EDE7AB
:100B2000FFF7FEFEA0EB0801494502D90320BDE80E
:100B3000F0876068696800F00C00B0EB810FEFD1BE
:100B4000306800F00700B8420BD9306820F0070089
:100B500038433060306800F00700B84201D001200F
:100B6000E5E72878400705D56068E96820F4E0608B
:100B7000084360602878000706D56068296920F47A
:100B8000605040EAC100606000F048F86168084ABF
:100B9000C1F30311515CC84006490860064800686B
:100BA000FFF7DEFE0020C2E70020024000100240F6
:100BB000102600081C000020140000200F220260F4
:100BC0000C4A536803F003034360536803F0F003D7
:100BD0008360536803F4E063C36052684FF4E063DA
:100BE00003EAD20202610448006800F007000860CE
:100BF00070470000001002400020024004480549F0
:100C000000684968044AC1F30221515CC84070473A
:100C10001C000020001002402026000812A185B010
:100C20000FC98DE80F0014A0144A006804905168A1
:100C3000134801F00C03042B10D0082B0ED1C1F384
:100C40008343C9031DF803000AD5516804AAC1F300
:100C50004041515C0A4A5043B0FBF1F005B0704787
:100C600008494843FAE7000002030405060708099B
:100C70000A0B0C0D0E0F10100102000000100240B4
:100C800000127A0000093D002DE9F84F040070D0F1
:100C90002078C04DC00749D06868C0F381000128A2
:100CA00007D06868C0F38100022809D16868C003D2
:100CB00006D52868800339D560680028E7D035E07C
:100CC0006068B0F5803F0BD010B1B0F5A02F11D007
:100CD000286820F480302860286820F4802002E012
:100CE000286840F480302860606890B1FFF718FEF3
:100CF00006460AE0286840F480202860F0E700BF3C
:100D0000FFF70EFE801B642873D828688003F7D590
:100D10000CE0FFF705FE064605E000BFFFF700FE0A
:100D2000801B6428F0D828688003F7D420789A4E76
:100D300080074FF001094FF0000839D5686810F0BE
:100D40000C0F07D06868C0F38100022809D16868D9
:100D5000C00306D42868800714D52069012808D16B
:100D600010E02069B0B1C6F80090FFF7D9FD074642
:100D700005E00AE1FFF7D4FDC01B0228C4D82868AB
:100D80008007F7D52868616920F0F80040EAC100C3
:100D900028600DE0C6F80080FFF7C2FD074604E0BA
:100DA000FFF7BEFDC01B022823D828688007F7D4B0
:100DB000207800072CD57948A169D9B1C0F80090F6
:100DC000FFF7AEFD074604E0FFF7AAFDC01B0228AF
:100DD0000FD8686A8007F7D571484FF4FA51006858
:100DE000B0FBF1F0009000BF0098411E0091FAD2D4
:100DF0000EE080E0C0F80080FFF792FD074604E0B7
:100E0000FFF78EFDC01B022875D8686A8007F7D4EB
:100E10002078400760D5E8690027C00008D4E86959
:100E200040F08050E861E869012700F080500090B0
:100E30005C480168C90513D40168834641F4807198
:100E40000160FFF76DFD824606E000BFFFF768FD19
:100E5000A0EB0A0064284ED8DBF80000C005F5D5E9
:100E6000E06801280AD008B1052813D0286A20F0CC
:100E700001002862286A20F0040002E0286A40F09D
:100E800001002862E06841F2883B98B1FFF748FD15
:100E900082460BE0286A40F004002862EEE700BFBB
:100EA000FFF73EFDA0EB0A0159455AD8286A800792
:100EB000F6D50CE0FFF734FD824605E0FFF730FD84
:100EC000A0EB0A0159454CD8286A8007F6D41FB117
:100ED000E86920F08050E861E06988B36968C1F38F
:100EE0008101022944D00228C6F8608004D0FFF7AF
:100EF00017FD044638E034E0FFF712FD074604E032
:100F0000FFF70EFDC01B02282BD828688001F7D4FC
:100F1000206AB0F5803F05D16868A16820F40030F0
:100F200008436860D4E908010843696821F4741132
:100F300008436860C6F86090FFF7F2FC044606E0DC
:100F400025E000BFFFF7ECFC001B022809D8286849
:100F50008001F7D51BE000BFFFF7E2FC001B022871
:100F600002D90320BDE8F88F28688001F4D40EE090
:100F70000128F7D06868226A00F48031914204D1D8
:100F8000616A00F47010884201D00120EAE7002075
:100F9000E8E70000001002400000424280044242A4
:100FA0001C000020007000407047704710B504001E
:100FB00003D094F83D0010B107E0012010BD0020DF
:100FC00084F83C00204600F01EF8022084F83D0022
:100FD000211D206800F0D0F9012084F8460084F833
:100FE0003E0084F83F0084F8400084F8410084F813
:100FF000420084F8430084F8440084F8450084F8F3
:101000003D00002010BD704790F83D10012901D02F
:1010100001207047022180F83D100168CA6842F043
:101020000102CA6000680B49884208D0B0F1804FC5
:1010300005D00949884202D00849884204D1816814
:1010400001F00701062903D0016841F001010160A8
:1010500000207047002C01400004004000080040C0
:10106000704770B50446006801694FF00005C94338
:10107000890715D4C168C943890711D4E91E0161E4
:1010800001202077206880698007204602D0FFF782
:10109000E7FF04E000F098F8204600F096F8257786
:1010A00020680169C943490717D4C168C943490782
:1010B00013D46FF004010161022020772068806959
:1010C00010F4407F204602D0FFF7CAFF04E000F092
:1010D0007BF8204600F079F8257720680169C9433C
:1010E000090716D4C168C943090712D46FF0080173
:1010F0000161042020772068C0698007204602D063
:10110000FFF7AEFF04E000F05FF8204600F05DF866
:10111000257720680169C943C90617D4C168C94346
:10112000C90613D46FF010010161082020772068F0
:10113000C06910F4407F204602D0FFF791FF04E021
:1011400000F042F8204600F040F825772068016959
:10115000C943C90708D1C168C943C90704D1891E59
:101160000161204600F032F820680169C943090690
:1011700009D4C168C943090605D46FF08001016133
:101180002046FFF711FF20680169C943490609D4C9
:10119000C168C943490605D46FF04001016120468A
:1011A00000F01EF820680169C94389060BD4C168A4
:1011B000C943890607D46FF0200101612046BDE8CC
:1011C0007040FFF7F2BE70BD70477047006803497A
:1011D000884201D1FFF7AABB704700000008004019
:1011E0007047FEE7134E144F144C4FF40055002285
:1011F00029463046FFF78EFBD4E9020100223B4628
:10120000FFF7B7F8FFF734F900F079FC012229461F
:101210003046FFF77FFBD4E9020100223B46FFF78F
:10122000A8F800223B46FFF7A1F8FFF721F900F0EC
:1012300066FCDCE7001001400000344000000020A4
:1012400010B58EB01C220B496846FEF7C7FF00217F
:10125000684600F060FC084C06491C2220601C31E6
:1012600007A8FEF7BBFF002107A800F054FC606050
:101270000EB010BDD82500080000002070B586B063
:10128000002418480094019402940394816941F069
:1012900010018161816901F010010491816941F0BF
:1012A00020018161816901F020010491816941F08F
:1012B000040181618069012200F004000A4E550397
:1012C000049029463046FFF725FB01200095CDE923
:1012D00001040220039069463046FFF72BFA06B05E
:1012E00070BD00000010024000100140FEE7704792
:1012F00010B5502080F31188BFF34F8FBFF36F8F6D
:1013000001F0A4F818B104494FF0805008600020A3
:1013100080F3118810BD000004ED00E030B58FB0FF
:1013200028216846FEF773FF14210AA8FEF76FFF15
:1013300001210804CDE90010002402940225049143
:10134000CDE907504FF4E01009906846FFF79CFC88
:101350000F20CDE90A056802CDE90C4002210AA858
:101360000E94FFF795FB0FB030BD70470148FFF7B3
:1013700078BE0000D8020020F0B50268164B174C6A
:10138000174D4FF08047984205D0B84203D0A04295
:1013900001D0A84203D122F070064A683243984235
:1013A00005D0B84203D0A04201D0A84203D122F414
:1013B0004074CA6822434C6922F0800222430260D2
:1013C0008A68C2620A688262984201D1096901632F
:1013D00001214161F0BD0000002C014000040040EB
:1013E000000800400C4E0D4F0D4D00240D2000F064
:1013F00086FB2046FFF72FF832463B46FEF7B9FF43
:1014000000F0D2FD641CE4B2642CC5E90201EDD306
:10141000012000F074FBE8E75D36C891BF15A03FDE
:1014200000000020FEE7490050EAC12018BF042058
:101430004A0D18BF40F0010040F2FF72B2EB515F5D
:1014400008BF40F00200012808BF052070470907C7
:10145000090E002804DB00F1E02080F8001470473A
:1014600000F00F0000F1E02080F8141D704700002C
:101470002DE9F74F144694B00021C4E902111599E3
:10148000079121F00045C9498D4206DC1599C4E950
:10149000000117B00020BDE8F08FC549DFF814A3A4
:1014A000A9423CDD0799C44E0029C44FC44A15998E
:1014B000534619DDFEF757FF554506D0C14AC24BCA
:1014C000FEF751FFC4E900010AE04FF0D352BE4BD2
:1014D000FEF749FF32463B46FEF745FFC4E90001EF
:1014E00017B00120BDE8F08FFEF79CFE554506D0F1
:1014F000B44AB54BFEF796FEC4E900010AE04FF08E
:10150000D352B14BFEF78EFE32463B46FEF78AFEC3
:10151000C4E9000117B04FF0FF30BDE8F08FAB49D0
:10152000A942159978DB21F0004183468846A84AF4
:10153000A84BFEF71EFF0022A74BFEF773FEFFF736
:10154000D8F80990FFF7C4F806460F469C4A534660
:10155000FEF70FFF43465A46FEF708FF80468A46CD
:10156000984A994B30463946FEF703FF2A0D01256C
:101570000B9242465346FEF7F9FE032DC4E90001E3
:1015800039D00B98C1F30A51401A05EB45111139B6
:10159000814230DA9148C346784400EB0510CDF81B
:1015A0000CA00C90D0E9002330463946FEF7E1FE4E
:1015B00002460B460491069058460399FEF7D3FE67
:1015C00080468A4602460B4658460399FEF7CBFEF4
:1015D000049B069AFEF7C7FE83460C980391394692
:1015E000D0E902233046FEF7C4FE5A46039BFEF7BD
:1015F000BAFE6D1CBDE707980028A2BF099817B076
:10160000BDE8F08F616881F000416160099817B012
:101610004042BDE8F08FFFE784461598C1F31301FF
:10162000C0F30A50A0F2F5304FEA601800F01F0630
:10163000C6F12000139000200690079041F4801E10
:1016400005206D4676B1664A08EB00017A4452F8EF
:10165000213002EB8101B3404A68139922FA01F16B
:10166000194305E05F4908EB0002794451F8221064
:10167000A1FB0E27A1FB0C131A449A4234BF01238D
:10168000002303EB070A05EB8003D3E901B70F44FE
:101690008F4234BF0121002193448B4411B1934503
:1016A00002D903E0934501D2012100E00021C3E902
:1016B00001B7514445F82010011EA0F10100C1DC22
:1016C0000298059F00F10050800F12900298DDE90A
:1016D00003568000FEF7FCFF834628460D91FEF777
:1016E000BAFE6FF01D02FEF7DCFFCDE90E013046B9
:1016F000FEF7B1FE6FF03D02FEF7D3FF80468A464B
:101700003846FEF7A8FE6FF05D02FEF7CAFF0746F7
:10171000424653461191FEF785FDDDE90E23FEF7A3
:1017200081FD5A460D9BFEF77DFD00250E465A466B
:1017300028460D9BFEF717FEDDE90E23FEF713FE8C
:1017400042465346FEF70FFE3A46119BFEF70EFE49
:10175000DFF898A0244A5346FEF70BFE074688465A
:10176000234A244B31462846FEF703FE3A464346B9
:10177000FEF758FD074688464FF0A84253463146CB
:101780002846FEF7F6FD3A464346FEF74BFD159A0E
:1017900012F0004F04D0129A81F00041524212928E
:1017A000C4E90001129817B0BDE8F08FFB21E93FB2
:1017B0007CD90240FB21F93F7370032E8A19A33BA9
:1017C000000040543163621A61B4D03DFB213941BD
:1017D00083C8C96D305FE43F0000E03FBC100000EB
:1017E000381000001A100000182D4454FB21F93D58
:1017F0003326A611460B113C2DE9FF4D21F0004880
:1018000007460C46B8F1795F08DAFEF772FF002848
:1018100001BF0020324904B0BDE8F08D3A462346AE
:1018200010461946FEF7A5FD054602462D480E4610
:101830000B460621784400F05DF82A463346FEF751
:1018400098FDDDE9022382468B4638462146FEF7A5
:1018500090FD04460F4652465B4628463146FEF749
:1018600088FD22463B46FEF77EFD07468A464FF03E
:10187000FF3228463146FEF714FF1B4A90450ADA2C
:101880003A465346FEF76FFD04B00022BDE8F04D26
:10189000134BFEF76BBD154A4245A8BFA8F50015CE
:1018A0004FF00004B8BF124D22462B46FEF75BFDF9
:1018B0000646884622462B4600200949FEF753FD7E
:1018C00004460D463A46534630464146FEF74BFD28
:1018D00004B022462B46BDE8F04DFEF747BD0000A0
:1018E0000000F03FF00D00003333D33F0000E93F2C
:1018F0000000D23F2DE9F0414F1E00EBC701044626
:10190000D1E9000115461E4637F006020DD02A46E1
:101910003346FEF72EFD7F1E04EBC703D3E90023F9
:10192000FEF780FC37F00602F1D1022F25D0042FFC
:1019300013D0062F18BFBDE8F0812A463346FEF7C4
:1019400018FDD4E90A23FEF76DFC2A463346FEF75C
:1019500010FDD4E90823FEF765FC2A463346FEF75E
:1019600008FDD4E90623FEF75DFC2A463346FEF760
:1019700000FDD4E90423FEF755FC2A463346FEF762
:10198000F8FCD4E90223FEF74DFC2A463346FEF765
:10199000F0FCD4E90023BDE8F041FEF743BC0000B1
:1019A0002DE9FF4D054621F0004084B00C46B0F112
:1019B000795F0BDA2846FFF736FD042808BF00F0F0
:1019C0006FF8284608B02146BDE8F08D2A460B4640
:1019D0001046FEF7CEFC06460F462A462346FEF783
:1019E000C8FC804626488A4632463B460521784454
:1019F000FFF780FF83461098029160B3214A224B83
:101A000040465146FEF7B5FCCDE900015A46404636
:101A10005146029BFEF7ADFC82468846DDE9060191
:101A20004FF0FF32FEF73DFE52464346FEF79BFC69
:101A300032463B46FEF79DFCDDE90623FEF793FCAC
:101A4000DDE90023FEF78FFC08B02A462346BDE8F7
:101A5000F04DFEF78BBC0B465A4630463946FEF732
:101A600088FC084A084BFEF7DDFB42465346FEF76A
:101A700080FC08B02A462346BDE8F04DFEF7D2BBF5
:101A80002E0D0000495555555555C5BF0122FEF78D
:101A900008BE0022134610461146FEF793BD000013
:101AA000024A00201107FEF7FCBD000001FDFFFF08
:101AB00002E008C8121F08C1002AFAD17047704717
:101AC000002001E001C1121F002AFBD17047000075
:101AD000014908607047000080000020FEF72EFFDB
:101AE000FFF71CFCFFF7CAFBFFF7AAFB00F00EF89C
:101AF000FEE701460020842900D0C81C704710B5BD
:101B000000B9012000F064FB002010BD10B500F00A
:101B100085FB002010BD7FB50D4604464169B0F934
:101B2000080081B1A16971B1FFF7E3FFD4E90512A3
:101B30008DE80700D4E900102B46226900F05BFC19
:101B4000039004B070BDFFF7D4FF03A9CDE90001F5
:101B5000208A2B4682B2D4E9001000F01FFC012835
:101B600001D00020EDE70398EBE700002DE9F041FC
:101B7000184C0F46054666692068001D00F064FA9F
:101B800038B9206890F82C1001208840A169814361
:101B9000A161681C07D137B12168BDE8F0410E484A
:101BA000091D00F095BA20683544B54245602168AA
:101BB00005D2A068BDE8F041091D00F071BA606867
:101BC000091D00F06DFA206B854200D22563BDE847
:101BD000F081000020000020FC0300202DE9F041EE
:101BE000054600F081FA2E4C2069401C20612068D7
:101BF0002C4F10B1E06940B32DE025602069012829
:101C000029D1002606EB860007EB800000F03AFAA7
:101C1000761C072EF6D323488C3000F033FA214887
:101C2000A03000F02FFA1F48B43000F02BFA1D4806
:101C3000C83000F027FA1B48DC3000F023FA1948BE
:101C40008C3060601430A06005E02068E96AC06AEA
:101C5000884200D82560E06A401CE062E96A012001
:101C6000A26988401043A06101EB810007EB80006E
:101C7000291D00F02DFA00F057FAE06900280CD079
:101C80002068E96AC06A884207D207494FF080504D
:101C90000860BFF34F8FBFF36F8FBDE8F081000086
:101CA000200000202003002004ED00E010B50446D1
:101CB00090F8510058B101280CD002280FD05020C4
:101CC00080F31188BFF34F8FBFF36F8FFEE7206B58
:101CD00000F03EFA2046BDE8104000F039BA10BDD1
:101CE0000F4842F21071420705D0C01D0C4A20F087
:101CF0000700821A891A0B4A00230144C2E9000333
:101D00000839103A21F0070111604B600B600B1A83
:101D1000C0E9001393604FF000405360D0607047FB
:101D2000100400206C000020144E154CA6F1C807CA
:101D30004FF08058DFF84C9012E000BF00F0D4F96B
:101D4000F068C568281D00F07FF92069401E2061F9
:101D5000E068401EE06000F0E7F92846FFF7A6FFC4
:101D6000E0680028EAD138680128F9D9C9F800806C
:101D7000BFF34F8FBFF36F8FF2E70000E80300203F
:101D80002000002004ED00E02DE9F0479A46DDE94F
:101D9000098481466FF00303206B03EB8202104439
:101DA000089D20F00706700707D0502080F31188A7
:101DB000BFF34F8FBFF36F8FFEE723180A5C83F8E2
:101DC00034200A5C12B1401C1028F6D3002784F896
:101DD0004370072D00D30625E562C4E91157201D85
:101DE00000F05BF904F1180000F057F92461C5F127
:101DF00007006462A061E76484F850705246494667
:101E0000304600F0BFF82060B8F1000F01D0C8F8EC
:101E10000040BDE8F087000030B5114900E01146F0
:101E20000A688242FBD34B685C18844203D1406845
:101E300018444860084643681C18944209D1084C6D
:101E4000103C2468A24209D052681A4442600A68D1
:101E500012680260814200D0086030BD0460F9E77A
:101E60006C00002006484168096829B14168C968CA
:101E7000C9684968016370474FF0FF31FAE7000015
:101E80002000002008484068401C4FF0500080F3BC
:101E9000118804D0BFF34F8FBFF36F8FFEE7BFF3FE
:101EA0004F8FBFF36F8FFEE7740000202DE9F041E4
:101EB0000546002700F0E8F9314E306808B9FFF711
:101EC0000FFFF06805424BD1C5B3083568070ED047
:101ED00005F00700C0F108000544680707D050204E
:101EE00080F31188BFF34F8FBFF36F8FFEE72DB3E1
:101EF0007068854234D82248103001460C6801E0F1
:101F000020460C466168A94202D221680029F7D117
:101F100031688C4224D00768216801606068083706
:101F2000411B10290FD96019420708D0502080F3B7
:101F30001188BFF34F8FBFF36F8FFEE710E0416052
:101F40006560FFF769FF61687068401A7060B26889
:101F5000904200D2B060F06801430020C4E9000163
:101F600000F0D8FA780707D0502080F31188BFF32B
:101F70004F8FBFF36F8FFEE73846BDE8F08100005A
:101F80005C00002010B5031F4FF080741C601B1F05
:101F900021F001011960191F024B0B601439403800
:101FA0000A6010BD851E000800B5254B21F00042D7
:101FB00087B09A4203DC0022134600922BE0214BAB
:101FC0009A4208D140B94FF00100FFF781FDFFF7B9
:101FD00060FD07B000BD03DBFFF758FD07B000BD93
:101FE00002AAFFF745FA10F003014FF001000DD0EF
:101FF000012914D002291AD00DF1080C9CE80F0019
:10200000FFF7FAFB07B081F0004100BD0DF1080CAD
:1020100000909CE80F00FFF7C3FC07B000BD0DF176
:10202000080C9CE80F00FFF7E7FB07B000BD0DF1BF
:10203000080C00909CE80F00FFF7B2FCE2E70000FC
:10204000FB21E93F0000F07FD0E9013201699A608D
:10205000D0E901235A604A68824201D182684A600D
:10206000002202610868401E08600868704700008E
:10207000034B036003F15400086080201060704738
:102080008400002000F108014FF0FF32C0E9011286
:10209000C16001610021016070470021016170474A
:1020A00030B50B685A1C02D000F1080202E0026948
:1020B00004E02246546825689D42FAD953684B6073
:1020C00099608A60516008610168491C016030BDF7
:1020D00042684A6093688B609368596091600861B8
:1020E0000168491C01607047502080F31188BFF3DC
:1020F0004F8FBFF36F8F0A494868401C4860012822
:102100000CD10848006810F0FF0F07D0502080F372
:102110001188BFF34F8FBFF36F8FFEE7704700004A
:102120007400002004ED00E00849486828B1401E12
:10213000486001D180F311887047502080F31188E6
:10214000BFF34F8FBFF36F8FFEE7000074000020D6
:1021500070B5002827D0144DA0F108046168E86824
:10216000014207D1502080F31188BFF34F8FBFF396
:102170006F8FFEE722683AB1502080F31188BFF3D9
:102180004F8FBFF36F8FFEE78143616000F07CF8F3
:1021900060686968084468602046FFF73DFEBDE856
:1021A000704000F0B7B970BD5C0000204FF0E02037
:1021B00000210161816105494FF47A720968B1FB20
:1021C000F2F1491E41610721016170471C000020A6
:1021D00010B5020014D00F48806B38B1502080F346
:1021E0001188BFF34F8FBFF36F8FFEE700F04CF8FD
:1021F00000211046FFF7BAFC00F08CF9002807D147
:1022000005494FF080500860BFF34F8FBFF36F8FC9
:1022100010BD00002000002004ED00E010B586B0E5
:102220000024039405AA04A903A80494FFF720FF3F
:10223000DDE903010094CDE9011000230EA110484F
:10224000059A00F0D8F80F490028486311D05020B3
:1022500080F31188BFF34F8FBFF36F8F4FF0FF30C4
:1022600008630120C8614C6106B0BDE8104000F071
:1022700041B806B010BD000049444C4500000000C4
:10228000291D0008200000200248816B491C816341
:1022900070470000200000201448816B11B101211B
:1022A00041627047002141628169B1FA81F1C1F157
:1022B0001F0101EB81020E4951F822306BB101EB95
:1022C000820101F108034A6852684A609A4201D1CA
:1022D00052684A60D16801607047502080F31188CD
:1022E000BFF34F8FBFF36F8FFEE700002000002089
:1022F000200300201CB5264908780190FF200870B3
:1023000008788DF800009DF800009DF8002000F08E
:10231000F000904207D0502080F31188BFF34F8F18
:10232000BFF36F8FFEE79DF800001A4B00F05000DE
:1023300018700720986005E09DF8002052008DF885
:102340000020401E9DF800201206F5D49860032856
:1023500007D0502080F31188BFF34F8FBFF36F8FEA
:10236000FEE74FF440709860019808700A480168D1
:1023700041F470010160016841F070410160FFF7B4
:1023800015FF00205860FDF7CDFE00201CBD0000A9
:1023900000E400E07400002020ED00E02DE9FF5F84
:1023A0008346DDE90E87994616468A469000FFF778
:1023B0007DFD05001CD05420FFF778FD040014D0EB
:1023C0000020256384F85100CDE90240CDE9008763
:1023D0004B46324651465846FFF7D6FC2046FFF79B
:1023E000FDFB012004B0BDE8F09F2846FFF7B0FEDA
:1023F0004FF0FF30F6E7F0B585B0DDE90B640A9DDC
:10240000A6B1DCB1542700972663022684F85160F8
:10241000002604AFCDE90246CDE90057FFF7B4FC32
:102420002046FFF7DBFB049805B0F0BD502080F399
:102430001188BFF34F8FBFF36F8FFEE7502080F3FB
:102440001188BFF34F8FBFF36F8FFEE72DE9F04187
:102450002E4C0027A06B40B1206A401C2062606AAD
:1024600000B101273846BDE8F0816669761C6661D7
:1024700013D16068006838B1502080F31188BFF331
:102480004F8FBFF36F8FFEE76068A1686160A06047
:10249000A06A401CA062FFF7E5FC206BDFF87080AB
:1024A000864209D36068006880B16068C068C5680A
:1024B000686886420DD220632068C06A00EB800104
:1024C00058F821000128CAD90127C8E74FF0FF308A
:1024D000F1E7281DFFF7B8FDA86A18B105F118004B
:1024E000FFF7B2FDE86A0121A26981401143A161B1
:1024F00000EB800108EB8100291DFFF7E9FDE86A88
:102500002168C96A8842CDD30127CBE7200000208B
:10251000200300202DE9F0472C4D00242746A86B0E
:1025200038B1FFF7E1FDA86B401EA863A86B40B16E
:1025300046E0502080F31188BFF34F8FBFF36F8FB9
:10254000FEE72969224E0120D1B3A6F1B4098046E5
:102550003068E8B1F068C46804F11800FFF774FD52
:10256000201DFFF771FDE06AAA6908FA00F1114326
:10257000A96100EB800109EB8100211DFFF7A8FD97
:10258000E06A2968C96A8842E2D3C5F82480DFE797
:102590000CB1FFF767FC2C6A44B14646FFF756FFC3
:1025A00000B16E62641EF9D100202862686A38B1F9
:1025B0000849012738070860BFF34F8FBFF36F8FBB
:1025C000FFF7B2FD3846BDE8F0870000200000208C
:1025D000D403002004ED00E058270008E5130008AC
:1025E000010000000000000080000000000000006A
:1025F0000000000048270008E5110008FDFF00006A
:10260000000000008000000000000000000000004A
:102610000000000000000000010203040607080992
:1026200000000000010203044C5555555555A53FC7
:102630007751C1166CC156BF9015CB19A001FA3E57
:10264000AD529C804F7E92BEC4B1B4BD9EEE213E81
:10265000D43888BEE9FAA8BD00004054FB21F93FF8
:102660003163621A61B4D03D0000601A61B4D03D9C
:102670007370032E8A19A33B0000002E8A19A33B16
:10268000C14920259A837B3900000000000000002A
:102690006E83F9A22915444ED15727FCC0DD34F5CD
:1026A000999562DB4190433CAB6351FE61C5BBDE53
:1026B0003A6E24B7E0D24D42EA2E49061C92D10967
:1026C0001CEB1DFE3EA729B1F53582E88444BB2EE4
:1026D00026709CE9417E5FB439D69139F439538331
:1026E0008B5F849C3B28F9BDFF97F81F0F9805DE90
:1026F0008B112FEF1F6D0A5ACF7E366DB709CB278E
:10270000663F464F2DEA5F9EC7BA27757BF1E5EB22
:10271000F739073DEA92528AB15FFB6B085D8D1F66
:10272000A6F810111111813FD561C119A0012ABF6E
:102730007DFEB157E31DC73EEB9C2B8AE6E55ABEF2
:102740007CD5CF5A3AD9E53D4C45445F50574D5F53
:102750005461736B000000005461736B5F6D6169BD
:102760006E000000842700080000002084000000A4
:10277000B01A000808280008840000209C2E0000E1
:10278000C01A000800000000000000000000000067
:102790000000000001000000100000000000000028
:1027A0000024F40000000000000000000000000011
:1027B0000000000000000000000000000000000019
:1027C0000000000000000000000000000000000009
:1027D00000000000000000000000000000000000F9
:1027E00000000000000000000000000000000000E9
:1027F000000000000000000000000000AAAAAAAA31
:082800000000000000000000D0
:04000005080000ED02
:00000001FF
